{
  "_format": "hh-sol-artifact-1",
  "contractName": "Lock",
  "sourceName": "contracts/Lock.sol",
  "abi": [
    {
      "inputs": [
        {
          "internalType": "address",
          "name": "tokenAddress",
          "type": "address"
        }
      ],
      "stateMutability": "nonpayable",
      "type": "constructor"
    },
    {
      "inputs": [
        {
          "internalType": "uint256",
          "name": "amount",
          "type": "uint256"
        },
        {
          "internalType": "uint256",
          "name": "time",
          "type": "uint256"
        }
      ],
      "name": "LockToken",
      "outputs": [],
      "stateMutability": "nonpayable",
      "type": "function"
    },
    {
      "inputs": [
        {
          "internalType": "address",
          "name": "",
          "type": "address"
        }
      ],
      "name": "deadLine",
      "outputs": [
        {
          "internalType": "uint256",
          "name": "",
          "type": "uint256"
        }
      ],
      "stateMutability": "view",
      "type": "function"
    },
    {
      "inputs": [],
      "name": "lockerCount",
      "outputs": [
        {
          "internalType": "uint256",
          "name": "",
          "type": "uint256"
        }
      ],
      "stateMutability": "view",
      "type": "function"
    },
    {
      "inputs": [
        {
          "internalType": "address",
          "name": "",
          "type": "address"
        }
      ],
      "name": "lockers",
      "outputs": [
        {
          "internalType": "uint256",
          "name": "",
          "type": "uint256"
        }
      ],
      "stateMutability": "view",
      "type": "function"
    },
    {
      "inputs": [],
      "name": "totalLocked",
      "outputs": [
        {
          "internalType": "uint256",
          "name": "",
          "type": "uint256"
        }
      ],
      "stateMutability": "view",
      "type": "function"
    },
    {
      "inputs": [],
      "name": "withdrawToken",
      "outputs": [],
      "stateMutability": "nonpayable",
      "type": "function"
    }
  ],
  "bytecode": "0x608060405234801561001057600080fd5b50604051610cb3380380610cb38339818101604052810190610032919061008d565b806000806101000a81548173ffffffffffffffffffffffffffffffffffffffff021916908373ffffffffffffffffffffffffffffffffffffffff160217905550506100ff565b600081519050610087816100e8565b92915050565b60006020828403121561009f57600080fd5b60006100ad84828501610078565b91505092915050565b60006100c1826100c8565b9050919050565b600073ffffffffffffffffffffffffffffffffffffffff82169050919050565b6100f1816100b6565b81146100fc57600080fd5b50565b610ba58061010e6000396000f3fe608060405234801561001057600080fd5b50600436106100625760003560e01c80632c8e7a2114610067578063568914121461009757806357bb55e6146100b557806358e46a73146100d1578063ca628c7814610101578063ccd96eb61461010b575b600080fd5b610081600480360381019061007c91906106a8565b610129565b60405161008e91906108c0565b60405180910390f35b61009f610141565b6040516100ac91906108c0565b60405180910390f35b6100cf60048036038101906100ca91906106fa565b610147565b005b6100eb60048036038101906100e691906106a8565b6103a1565b6040516100f891906108c0565b60405180910390f35b6101096103b9565b005b610113610663565b60405161012091906108c0565b60405180910390f35b60036020528060005260406000206000915090505481565b60025481565b6000821161018a576040517f08c379a000000000000000000000000000000000000000000000000000000000815260040161018190610880565b60405180910390fd5b6000600360003373ffffffffffffffffffffffffffffffffffffffff1673ffffffffffffffffffffffffffffffffffffffff16815260200190815260200160002054116101ea57600160008154809291906101e4906109e8565b91905055505b81600260008282546101fc91906108ec565b9250508190555081600360003373ffffffffffffffffffffffffffffffffffffffff1673ffffffffffffffffffffffffffffffffffffffff168152602001908152602001600020600082825461025291906108ec565b92505081905550804261026591906108ec565b600460003373ffffffffffffffffffffffffffffffffffffffff1673ffffffffffffffffffffffffffffffffffffffff1681526020019081526020016000208190555060008060009054906101000a900473ffffffffffffffffffffffffffffffffffffffff1673ffffffffffffffffffffffffffffffffffffffff166323b872dd3330866040518463ffffffff1660e01b8152600401610308939291906107e0565b602060405180830381600087803b15801561032257600080fd5b505af1158015610336573d6000803e3d6000fd5b505050506040513d601f19601f8201168201806040525081019061035a91906106d1565b90508061039c576040517f08c379a0000000000000000000000000000000000000000000000000000000008152600401610393906108a0565b60405180910390fd5b505050565b60046020528060005260406000206000915090505481565b6000600360003373ffffffffffffffffffffffffffffffffffffffff1673ffffffffffffffffffffffffffffffffffffffff168152602001908152602001600020541161043b576040517f08c379a000000000000000000000000000000000000000000000000000000000815260040161043290610860565b60405180910390fd5b600460003373ffffffffffffffffffffffffffffffffffffffff1673ffffffffffffffffffffffffffffffffffffffff1681526020019081526020016000205442116104bc576040517f08c379a00000000000000000000000000000000000000000000000000000000081526004016104b390610840565b60405180910390fd5b6000600360003373ffffffffffffffffffffffffffffffffffffffff1673ffffffffffffffffffffffffffffffffffffffff168152602001908152602001600020549050600360003373ffffffffffffffffffffffffffffffffffffffff1673ffffffffffffffffffffffffffffffffffffffff1681526020019081526020016000206000905580600260008282546105559190610942565b925050819055506001600081548092919061056f906109be565b919050555060008054906101000a900473ffffffffffffffffffffffffffffffffffffffff1673ffffffffffffffffffffffffffffffffffffffff1663a9059cbb33836040518363ffffffff1660e01b81526004016105cf929190610817565b602060405180830381600087803b1580156105e957600080fd5b505af11580156105fd573d6000803e3d6000fd5b505050506040513d601f19601f8201168201806040525081019061062191906106d1565b610660576040517f08c379a0000000000000000000000000000000000000000000000000000000008152600401610657906108a0565b60405180910390fd5b50565b60015481565b60008135905061067881610b2a565b92915050565b60008151905061068d81610b41565b92915050565b6000813590506106a281610b58565b92915050565b6000602082840312156106ba57600080fd5b60006106c884828501610669565b91505092915050565b6000602082840312156106e357600080fd5b60006106f18482850161067e565b91505092915050565b6000806040838503121561070d57600080fd5b600061071b85828601610693565b925050602061072c85828601610693565b9150509250929050565b61073f81610976565b82525050565b60006107526014836108db565b915061075d82610a60565b602082019050919050565b60006107756010836108db565b915061078082610a89565b602082019050919050565b60006107986022836108db565b91506107a382610ab2565b604082019050919050565b60006107bb6013836108db565b91506107c682610b01565b602082019050919050565b6107da816109b4565b82525050565b60006060820190506107f56000830186610736565b6108026020830185610736565b61080f60408301846107d1565b949350505050565b600060408201905061082c6000830185610736565b61083960208301846107d1565b9392505050565b6000602082019050818103600083015261085981610745565b9050919050565b6000602082019050818103600083015261087981610768565b9050919050565b600060208201905081810360008301526108998161078b565b9050919050565b600060208201905081810360008301526108b9816107ae565b9050919050565b60006020820190506108d560008301846107d1565b92915050565b600082825260208201905092915050565b60006108f7826109b4565b9150610902836109b4565b9250827fffffffffffffffffffffffffffffffffffffffffffffffffffffffffffffffff0382111561093757610936610a31565b5b828201905092915050565b600061094d826109b4565b9150610958836109b4565b92508282101561096b5761096a610a31565b5b828203905092915050565b600061098182610994565b9050919050565b60008115159050919050565b600073ffffffffffffffffffffffffffffffffffffffff82169050919050565b6000819050919050565b60006109c9826109b4565b915060008214156109dd576109dc610a31565b5b600182039050919050565b60006109f3826109b4565b91507fffffffffffffffffffffffffffffffffffffffffffffffffffffffffffffffff821415610a2657610a25610a31565b5b600182019050919050565b7f4e487b7100000000000000000000000000000000000000000000000000000000600052601160045260246000fd5b7f646561646c696e65206973206e6f74206f766572000000000000000000000000600082015250565b7f6e6f7420656e6f75676820746f6b656e00000000000000000000000000000000600082015250565b7f546f6b656e20616d6f756e74206d75737420626520626967676572207468616e60008201527f2030000000000000000000000000000000000000000000000000000000000000602082015250565b7f5472616e73666572206661696c65642e21212100000000000000000000000000600082015250565b610b3381610976565b8114610b3e57600080fd5b50565b610b4a81610988565b8114610b5557600080fd5b50565b610b61816109b4565b8114610b6c57600080fd5b5056fea2646970667358221220b2257eae8b90d1e6647a01a9ad6fa0a9b4365d3df7ff8815a808eff321de11e964736f6c63430008020033",
  "linkReferences": {},
  "deployedLinkReferences": {}
}